S00D00004B425358462E7372656399
S11300000AC022C020C01FC01EC01DC01CC01BC00F
S11300101AC019C0CC0011241FBECFE9CDBF20E007
S1130020A0E6B0E001C01D92A736B207E1F710E0E8
S1130030CBE0D0E003C02197FE01B2D0CA30D10793
S1130040D1F78CD0B3C0DCCF1F920F920FB60F92B2
S113005011242F933F938F939F93B09905C01092CF
S113006061001092600006C081E090E0909361000E
S113007080936000809163009FEF980F983080F424
S113008020916000309161009FEF980F02C0220F11
S1130090331F9A95E2F790916500292B2093650010
S11300A08F5F809363008B30A9F480916500803F5B
S11300B021F481E08093620009C090916200992349
S11300C019F01092620002C08093640010926500DF
S11300D0109263009F918F913F912F910F900FBECB
S11300E00F901F9018950895109265001092640067
S11300F0109263001092620008959091640081E070
S1130100911101C080E00895809164001092640010
S11301100895C29812BE92B79E30E8F320E030E012
S1130120482F50E0CA01022E02C0959587950A9483
S1130130E2F780FF02C0C29A01C0C29882B78E3033
S1130140E8F32F5F3F4F2830310561F7C29A82B739
S11301508E30E8F30895BA9AC29A089586E690E03C
S1130160C3DFB898B998C09AC19A8BB780648BBF23
S113017085B7826085BF789482E08FBD83BF8EE0AF
S113018086BFE9DF86E690E0B8DF8823D9F386E608
S113019090E0BADFBEDFF6CF86E690E0A4DF0895F4
S11301A0EE0FFF1F0590F491E02D0994F894FFCF12
S9030000FC
